:020000041000EA
:1000000000B5324B212058609868022188439860DF
:10001000D860186158612E4B002199600221596106
:100020000121F02299502B49196001219960352056
:1000300000F044F80222904214D00621196600F024
:1000400034F8196E01211966002018661A6600F04E
:100050002CF8196E196E196E052000F02FF8012189
:100060000842F9D1002199601B49196000215960AB
:100070001A491B48016001219960EB211966A021F2
:10008000196600F012F800219960164914480160C1
:100090000121996001BC002800D000471248134993
:1000A000086003C880F30888084703B5996A0420EC
:1000B0000142FBD001200142F8D103BD02B5186610
:1000C0001866FFF7F2FF186E186E02BD00000240BE
:1000D000000000180000070000035F00212200005C
:1000E000F4000018222000A00001001008ED00E03C
:1000F00000000000000000000000000074B24E7A12
:1001000000200420F7010010C3010010C5010010F9
:10011000C1010010C1010010C1010010C101001097
:10012000C1010010C1010010C1010010C701001081
:10013000C1010010C1010010C9010010CB01001065
:10014000CD010010CD010010CD010010CD01001037
:10015000CD010010CD010010CD010010CD01001027
:10016000CD010010CD010010CD010010CD01001017
:10017000CD010010CD010010CD010010CD01001007
:10018000CD010010CD010010CD010010CD010010F7
:10019000CD010010CD010010CD010010CD010010E7
:1001A000CD010010CD010010CD010010CD010010D7
:1001B000CD010010CD010010CD010010CD010010C7
:1001C00000BE00BE00BE00BE00BE00BEEFF3058054
:1001D000103800BEF2EB887144A9001064A9001029
:1001E0003802001090A31AE71E481F49086006C88D
:1001F00081F3088810471D480068002801D019487D
:10020000F3E70DA40ECC002902D000F012F8F9E7B4
:100210001749184A002000E001C19142FCD116495B
:100220008847164988471649884700BEFDE701C937
:1002300001C29A42FBD3704764A90010C00000209D
:1002400010120020B4BA00100000042000000420A6
:10025000B4BA0010001004200010042000000000B8
:10026000704700000000000008ED00E0000000D032
:1002700010120020B4450020D9660010390A001081
:10028000D1660010F8B5C0460448054B10B583424E
:1002900003D0044B002B00D0984710BD1012002053
:1002A000101200200000000006480749091A8B10B0
:1002B000C90FC91810B5491003D0044B002B00D04A
:1002C000984710BD101200201012002000000000FE
:1002D00010B5074C2378002B09D1FFF7D5FF054B4C
:1002E000002B02D0044800E000BF0123237010BDA2
:1002F0009015002000000000809C0010054B10B5F8
:10030000002B03D00449054800E000BFFFF7CCFFF5
:1003100010BDC0460000000094150020809C001015
:10032000004870477CA300100048704794A3001059
:1003300000487047D0A3001070B5002823D00328D0
:100340002CD8174B8000C558280009F041F9C0B2DD
:10035000041C1F2812D8E4B2002808D00023114A38
:10036000E95C01331180D9B202328C42F8D8C02244
:100370000134E3B25B00920013430CE01F24E4B2AB
:100380000028EBD1F3E7064B02221968054804F078
:100390001DFDC1239B000448038070BD0020FCE7C5
:1003A00008100020261A0020241A002070B504200E
:1003B00002F056FD052002F053FD022002F050FD30
:1003C000032002F04DFD0121042002F02FFD012148
:1003D000022002F02BFD0121032002F027FDD02492
:1003E0000521052002F022FD202324066362244912
:1003F0006361244809F04EF800F018FC00281BD176
:1004000021490122214802F00FFA011E26D10122C2
:100410001F4B80261F481A70032506F0CDFAB6043C
:100420006420666103F072FA013D6420A66103F066
:100430006DFA002DF4D170BD8026174806F0BCFA85
:100440000525B6046420666103F060FA013D64206E
:10045000A66103F05BFA002DF4D1ECE780260F488B
:1004600006F02EFB0525B6046420666103F04EFA03
:10047000013D6420A66103F049FA002DF4D1DAE7CA
:10048000801A060000C0034038A00010403F002042
:10049000B2450020809C0010C09C0010A09C001061
:1004A00030B51C4B1C4C1B78A544002B2BD00122D3
:1004B0001A4902A802F0E8F9002818D1184D194A83
:1004C000290001AB02A802F0F1FA040002A802F030
:1004D00035FC002C19D101220199134B13486C549F
:1004E0001A7006F0EDFA8D239B009D4430BD104834
:1004F00006F062FA5A220A480E4904F067FC01220B
:10050000094B1A70EFE70C48F2E70C4806F054FA72
:10051000E9E7C046B2450020CCFDFFFF6C9D00100E
:10052000381F0020FF1F0000AF450020A89D0010CD
:10053000789D0010109D0010E09C0010C89D0010D8
:10054000030030281ED00FD80A2824D02C20202BBE
:1005500014D00138092B11D0213BDBB25D2B1CD804
:10056000234A9B00D3589F465A280DD8402806D8C6
:100570000200313A082AEFD8133BD8B270473D3B0E
:10058000D8B2FBE72720F9E70200613A192AE3D83D
:100590005D3BD8B2F2E72820F0E70020EEE73520F7
:1005A000ECE73020EAE73120E8E72F20E6E73320C8
:1005B000E4E73820E2E73720E0E72D20DEE73620C9
:1005C000DCE72E20DAE73420D8E72320D6E7212005
:1005D000D4E72020D2E72520D0E72620CEE724202C
:1005E000CCE72220CAE71E20C8E71F20C6E7C04686
:1005F00004A20010F0B5D6464F4646460400C0B5EA
:1006000082B02378202B01D0092B01D10134F8E7E7
:1006100006222000744909F07FF8002800D177E015
:1006200007222000714909F077F800284BD1E579BD
:10063000002D67D06E4B032798466E4B08349946C1
:100640003AE02900484608F0F1FF431E9841460071
:10065000002007F0AFFC002813D02800FFF770FF40
:100660000622050000216846EA4604F0A9FB002D99
:1006700001D06B461D70534632000121002007F067
:10068000B5FC322003F042F9002007F093FC00286B
:100690000AD006220021684604F092FB6B46002235
:1006A0000121002007F0A2FC3220013403F02EF9D2
:1006B000631E1D78002D25D043465B5D3B40012B1A
:1006C000BFD10226C4E720004B4909F0BDF900283C
:1006D00040D02000494909F0B7F9002822D004226F
:1006E0002000474909F018F8002858D02000454953
:1006F00009F0AAF900286CD02000434909F0A4F9B8
:10070000002841D002B0E0BCBA46B146A846F0BDD0
:10071000A01D09F0B7F83D4B010018603C4806F0F9
:10072000CFF9EFE707F046FC002826D1322003F08E
:10073000EDF8002007F03EFC0028E3D0062200215F
:10074000684604F03DFB6B4600220121002007F0C3
:100750004DFCD7E707F02EFC0028E7D00622002149
:10076000684604F02DFB28236A46012113700020FF
:100770006B46002207F03AFCD8E7062200216846C3
:1007800004F01EFB2C23EFE707F014FC0028CDD06B
:1007900006220021684604F013FB2923E4E72479AC
:1007A00007F008FC0028C1D02000FFF7C9FE062290
:1007B000040000216846EA4604F002FB002C01D048
:1007C0006B461C70534608220121002007F00EFCE6
:1007D000ACE707F0EFFB0028A8D00622002168460E
:1007E00004F0EEFA2B23BFE7E49D0010009E0010FA
:1007F00041A80010089E0010209E0010289E0010A6
:10080000309E0010389E00103C9E001018100020F2
:10081000EC9D0010F0B5CE46474680B52D4BC1B0DB
:100820001B78002B04D02C4B99461B78002B04D14D
:1008300041B0C0BCB946B046F0BD03F07DF9002917
:1008400025D0FA220023920003F06AFC804642463B
:10085000224F3B68D31A224A12689342E8D3214DB3
:10086000214E2C6807E0335D31190A2B01D00D2B86
:1008700013D101342C60300008F0AAFEA042F2D857
:1008800000234A461948137006F096F8D0E7FA217B
:10089000890003F007FC8046D9E76A460023561E0C
:1008A0000AE0CA5C0A2A09D00D2A07D0FF2B05D01E
:1008B000013401332C60F254A042F2D86846002281
:1008C000C2540378002B02D143463B60B0E7FFF7E8
:1008D00091FEF9E7AF450020B045002074450020A7
:1008E0001810002098450020381F0020449E00105A
:1008F000002070477047C046F0B5C64600B588B0C6
:100900008C4601A998460B00104C170024CC24C338
:10091000227804AD1A702B000D4C45CC45C32278CB
:1009200060461A700B4B0822009304F04FFA29001E
:100930000C22380004F04AFA03226946404604F0CB
:1009400045FA08B080BCB846F0BDC046609E0010B5
:100950006C9E0010312E3000014B18787047C04655
:10096000B245002080239B0010B51380054B0C007E
:100970001B780020002B01D1206010BD00F06CFC22
:10098000FAE7C046B2450020012070471800094B25
:1009900010B51B781400002B09D0029B640A5A0A78
:1009A000611800F07FFA002801D1029810BD0120E3
:1009B0004042FBE7B24500201800094B10B51B78F8
:1009C0001400002B09D0029B640A5A0A611800F037
:1009D0003FFB002801D1029810BD01204042FBE7F7
:1009E000B2450020044B10B51B78002B00D110BD80
:1009F000002002F03FF9FAE7B245002010B50023CD
:100A00002022052107F036FD0120404210BDC046DE
:100A1000F8B5071E0FDDD026802500243606AD046C
:100A20006420756102F072FF01346420B56102F048
:100A30006DFFA742F4D1F8BD70B582B008F020FD7B
:100A4000192002F00DFAD02380221B0692045A626C
:100A5000404805F0B1FFFFF7A9FCFFF721FD012396
:100A60006A4601A90020938006F00AFA07E00120F7
:100A70000021404206F07EFA012002F047FF06F016
:100A8000EFF90028F3D0344805F096FF0220FFF775
:100A9000BFFF324802F03AFF314B324D1B78002B3A
:100AA00051D1FA26304CB60001200021404206F018
:100AB00061FA2B78002B26D103F03EF8002928D0CC
:100AC000FA220023920003F02BFB2368C01AB042E5
:100AD000EAD9D02380221B0659689204114227D1FB
:100AE0005A6103F029F8002927D0FA220023920046
:100AF00003F016FB206001200021404206F03AFA84
:100B00002B78002BD8D0FFF785FE03F015F80029CD
:100B1000D6D1FA21890003F0C5FA2368C01AB04281
:100B2000C2D9D02380221B06596892041142D7D023
:100B30009A6103F001F80029D7D1FA21890003F066
:100B4000B1FA2060D7E7012308482B7005F034FF85
:100B5000A7E7C0467C9E0010A89E0010B80B0000BE
:100B6000AF450020B045002070450020B89E001021
:100B7000F0B5C646952300B50E00984682B0002811
:100B800007D00300083B5A42534187225B421A4078
:100B900090466B469C1D40231843234B21001F6841
:100BA0006B46DD1D2A0001232070380009F01CF877
:100BB000330E2A00210023703800012309F014F8B5
:100BC000330C2A00210023703800012309F00CF8AF
:100BD000330A2A00210023703800012309F004F8A9
:100BE00001232A0021002670380008F0FDFF43464B
:100BF0002A00237021000123380008F0F5FFFF23AD
:100C00000A26984643462A00237021000123380013
:100C100008F0EAFF2878FF2802D1013E002EF1D12A
:100C200002B080BCB846F0BD18A400100122F0B597
:100C3000454657464E46DE46914BE0B51B6887B0A9
:100C40009A40D0231B0602925A618E4B0B241E68D9
:100C500002AB9C46FF230A279846644405AD4346F1
:100C60002A002370210001233000013F08F0BCFF5F
:100C7000002FF4D1D027029B3F06BB61002100204A
:100C8000FFF776FF029B7B61012800D0ECE0D521C5
:100C90000820BB614900FFF76BFF012800D1C5E0C8
:100CA000D023029A1B065A619B46FA239B000393AA
:100CB00000239A46FF3399465B46029A21009A61C7
:100CC00077232A0023703000763B08F08DFF5346CF
:100CD0002A00210023703000012308F085FF5346CD
:100CE0002A00210023703000012308F07DFF5346C5
:100CF0002A00210023703000012308F075FF5346BD
:100D00002A00210023703000012308F06DFF5346B4
:100D10002A00237021000123300008F065FF0A2714
:100D20004B462A00237021000123300008F05CFFAD
:100D30002B78FF2B02D1013F002FF1D169232A002C
:100D4000210023703000683B08F04EFF40232A004A
:100D50002100237030003F3B08F046FF53462A0035
:100D6000210023703000012308F03EFF53462A0083
:100D7000210023703000012308F036FF53462A007B
:100D8000210023703000012308F02EFF53462A0073
:100D9000237021000123300008F026FF0A274B466C
:100DA0002A00237021000123300008F01DFF2B785A
:100DB000FF2B16D1013F002FF1D198465B46029AD6
:100DC0005A61012002F0A2FD039B013B0393002B1B
:100DD00000D071E741462C4805F072FE01204042E8
:100DE0001DE098465B46029A5A614346002BE8D1C3
:100DF0005B4680219A61102089001400FFF7B8FE3D
:100E00005B465C61002835D18022204B92031A603A
:100E100001221F4B1F481A7005F0CEFD002007B0BD
:100E2000F0BCBB46B246A946A046F0BDFF232F004A
:100E3000984602A8844642460A2102AB9A723000C4
:100E400001232200614408F0CFFE23783B70013774
:100E500006AB9F42EDD1EF78AB786A7829780E48DF
:100E6000009705F02DFE1BE70C4B0100180005F064
:100E700027FEB3E70A4B0100180005F021FEADE79D
:100E800014A4001018A400103C9F00109C450020E2
:100E9000B14500206C9F0010189F0010009F0010AB
:100EA000549F0010F0B55746DE464E464546E0B525
:100EB000604B8A461B7885B0002B00D1B5E0002A34
:100EC00000D1AEE001215C4B1B6899405B4B009167
:100ED0001F6880239B00984613005344019302AB84
:100EE0009D1DDE1DD0231B069B4680445B46009A59
:100EF00029009A61512332002B703800503B08F0D2
:100F000073FE53461B0E320029002B70380001235C
:100F100008F06AFE53461B0C320029002B70380083
:100F2000012308F061FE53461B0A320029002B7092
:100F30003800012308F058FE5346320029002B7078
:100F40003800012308F050FE002332002B702900E6
:100F50000133380008F048FEFF230A2499464B4627
:100F600029002B7032000123380008F03DFE317853
:100F7000FF2912D1013C002CF1D1314805F0A0FD30
:100F8000D023009A1B065A610120404205B0F0BCF4
:100F9000BB46B246A946A046F0BD0029EDD1FA24D1
:100FA000FF23A400994602E0013C002C3BD04B46B5
:100FB00029002B7032000123380008F015FE31782B
:100FC000FE29F1D1FF2399461E4C44444B46320082
:100FD0002B7029000123380008F006FE33782370B7
:100FE0000134A045F2D14B46320029002B70380065
:100FF000012308F0F9FD4B4632002B702900012334
:10100000380008F0F1FD5B46009A5A6101239C46C6
:1010100080239B00E2449C46019BE044534500D062
:1010200064E70020B2E70848A8E7084805F0C4FCD8
:10103000AAE7C046B145002014A4001018A400106F
:10104000A89F001000FEFFFFC09F0010909F00109F
:10105000F0B557464E46DE464546E0B5764B0700AE
:101060001B78894687B0002B00D1E1E0002A00D12F
:10107000D2E00121714B1B689940714B02911B68B2
:10108000019380239B009C4613004B44039304ABC5
:101090009C1DDD1DD0231B069A4667445346029AC9
:1010A000019E9A6158232A00210030002370573B8B
:1010B00008F09AFD4B461B0E2A00210030002370D9
:1010C000012308F091FD4B461B0C2A002100300043
:1010D0002370012308F088FD4B461B0A2A002100DB
:1010E00030002370012308F07FFD4B462A002100C9
:1010F00030002370012308F077FD002330002370B7
:101100002A0001332100019608F06EFDFF230A2614
:101110009846BB46019F4346210023702A000123C5
:10112000380008F061FD2978FF2912D1013E002E18
:10113000F1D1444805F0C4FCD023029A1B065A6141
:101140000120404207B0F0BCBB46B246A946A046CB
:10115000F0BD5F460029ECD1FE2301982370834641
:10116000FD3B2A00210008F03FFD374BB846FE1832
:101170005F4633782A0023702100012338000136AE
:1011800008F032FDB045F4D1FF2347469846019E52
:101190002A00210023703000FE3B08F025FD434665
:1011A0002A00210023703000FE3B08F01DFD43465D
:1011B000210023702A00FE3B300008F015FD1F239C
:1011C00029780B40052B31D1FA239B009846FF2349
:1011D00046469B46B846019F01E0002E1ED05B4666
:1011E0002A00237021000123380008F0FDFC2B7831
:1011F000013E002BF1D04746002E0FD05346029AF5
:101200005A6101239C4680239B00E1449C46039B3A
:1012100067444B4500D041E7002093E70B4805F0B9
:10122000CBFBD023029A1B065A6189E7084881E765
:10123000084805F0C1FB83E7B145002014A4001065
:1012400018A40010DC9F001000FEFFFF14A0001087
:10125000F49F0010909F0010014B18687047C04623
:101260009C45002010B504000648210005F028FC2C
:101270000120002C04D1FFF7D9FC431E9841C0B2D5
:1012800010BDC04624A00010431E9841C0B2704754
:10129000F8B504000F000948210015001E0005F0F4
:1012A0000FFC002C08D1320029003800FFF7FAFDAE
:1012B000431E9841C0B2F8BD0420FCE73CA00010DA
:1012C000F8B504000F000948210015001E0005F0C4
:1012D000F7FB002C08D1320029003800FFF7B8FED8
:1012E000431E9841C0B2F8BD0420FCE768A000107E
:1012F00070B505000C0016000F480A00290005F023
:10130000DFFB002D12D1022C12D00AD8002C06D0FF
:10131000FFF7A2FF01003060084805F0D1FB002074
:1013200070BD032C02D101233360F8E70420F7E7F6
:1013300080239B003380F2E794A00010B4A000103B
:101340000048704700002156C26970B504000D00C6
:1013500000208A4200D170BD260023793036002B50
:101360000CD101232A0031006078FFF791FF00289B
:1013700002D0012501206D42E561ECE70123310037
:101380006078FFF79DFF03000120002BE3D1E269A5
:101390002371A169636AD31A8B42E2D2E378022BEC
:1013A000DFD1521860783100013BFFF789FFD8E7A1
:1013B000F0B54646D6464F46C0B5067804000D0047
:1013C0009046022E34D0032E12D00220012E0AD1D4
:1013D0004F08636A7F18790A2000C918FFF7B4FF25
:1013E00000283CD00120E0BCBA46B146A846F0BD7A
:1013F000436AC909C918FFF7A7FF0028F2D143467D
:10140000FE22190123005200AD00154030335B1954
:10141000DA780909120912070A43110A1A70597079
:10142000110C120E9970DA70012300202371DAE793
:10143000436A090AC918FFF787FF0028D2D1FF22A3
:10144000230052006D00303315405D1943462B7068
:101450009AB20123120A6A7000202371C3E7302375
:101460009A467B1C99464346DAB24B46FF05A24496
:10147000FF0D57445B0A2E4215D00F213878120118
:1014800001400A433A70616A200026715918FFF73B
:101490005BFF0028A6D14B46D9054346C90D1B0961
:1014A0005144DBB214E03A70616A20002671591889
:1014B000FFF74AFF002895D14B465246DB05DB0D6E
:1014C000D118D35C42460F20120A834310400343D5
:1014D0000B7001230020237185E7C046F0B5C64696
:1014E00006000C00012500B5012914D94369994271
:1014F00011D20378022B2FD0032B10D0012B0AD14D
:101500004F08436A7F18790AC918FFF71DFF0028A2
:1015100036D001256D42280080BCB846F0BD436A34
:10152000C909C918FFF710FF0028F2D1FE233121A5
:101530003022A4005B001C403419615CA25C0902EB
:1015400011433222A25C12040A433321655C2D064A
:1015500015432D012D09DEE7436A090AC918FFF773
:10156000F3FE0028D5D1FF2331225B0064001C402C
:101570003419CF3BA55CFF3BE35C2D021D43CAE75A
:101580007B1CFF05590A9846FF0D736AF71930371F
:101590003000C9183F78FFF7D7FE0028B9D143467D
:1015A000DB05DB0DF31830331B781B023B43254270
:1015B00001D01D09AFE71B051D0DACE770B5037920
:1015C0000400002B0BD16379012B25D000220021D0
:1015D0006078FFF78DFE431E9841C0B270BD0500D4
:1015E00030350123C26929004078FFF769FE030006
:1015F0000120002BF2D1E2692371A169636AD31A39
:101600008B42E0D2E378022BDDD1521860782900BA
:10161000013BFFF755FED6E7002523786571032BC4
:10162000D4D126008022303600213000920003F011
:10163000C7FB5223302233218520A3540132A35407
:101640000F330132A3540F32625480003F312154D2
:101650001948215419496254194AA3542369013283
:10166000A354184A190AA154174A190CA154174A2D
:101670001B0EA354E3680132A354154A190AA1545E
:10168000144A190CA154144A1B0EA3548B239B001B
:10169000E554124BCB3AE554114BFF3AE254114B4F
:1016A0005532E254226A0123013231006078E2614E
:1016B000FFF706FE8AE7C04615020000160200008A
:1016C00017020000190200001A0200001B020000AD
:1016D0001D0200001E0200001F0200002D0200007B
:1016E0002E0200002F02000070B501260023764272
:1016F00004000D000371C6614B1C65D1464A464B80
:10170000A2185578E35C2D021D433023E35CEB2BDC
:1017100009D01833DBB2012B05D9404BE818431E22
:101720009841023070BD3E4B9D425BD023003B335D
:101730001A785B7803201B0213435A1E1342F1D11F
:101740008022032092009342ECD13D23E35C002BE6
:10175000E8D05A1E1342E5D13E23E25C0133E35C3C
:101760001B021343D9D04023E35C013B012BD4D8A7
:101770004123E25C230041335B781B021343CCD04E
:101780004323E25C230043335B781B0213437F2B2C
:1017900011D85023E25C0133E35C1B021343522255
:1017A000A25C12041A435323E35C1B0613438022FA
:1017B00052029342B1D34623E25CE41863781B02E1
:1017C0001343AAD00020ADE70A002100012340788E
:1017D0003031FFF75DFD002802D00420E661A1E76B
:1017E000E5618BE7200008220E49823008F026F8D8
:1017F0000028E7D023003B331A785B7802201B02D5
:1018000013435A1E134200D08CE780229200934269
:1018100000D087E799E7C0462E020000AB55FFFFD6
:1018200055AA0000CCA00010F0B54546DE4657464C
:101830004E460023E0B5056883B00B60002D00D153
:1018400053E12C0002E03A2B00D1DBE02378013495
:10185000202BF8D8B44B1C68002C00D124E10126C1
:101860002378B24315000C60002B0BD06078FFF793
:101870000BFD064206D1002D02D0400700D5D1E075
:101880000020C8E0002360782370FFF7EBFCC3075B
:1018900000D5BFE0002D02D0400700D5C2E00021F6
:1018A0002000FFF721FF022800D1BDE0042800D16D
:1018B00005E1012800D9F5E0230080223B331978A7
:1018C0005B7892001B020B43934200D0EAE02200B7
:1018D000462346325578E35C2D021D430DD1552237
:1018E0005423A25CE35C12021A435623E35C1B04FC
:1018F00013435722A55C2D061D43E369A5619B4652
:101900004023E65C731EE670012B00D9CAE03D233C
:10191000E75C6781002F00D1C4E07B1E1F4200D02E
:10192000C0E04123E25C230041335B781B02134398
:10193000984623811B0700D0B4E04323E25C2300D8
:1019400043335B781B0213430DD15033E25C013308
:10195000E35C1B0213435222A25C12041A4353237A
:10196000E35C1B0613433E22A15C0132A25C12021F
:101970000A43914600D195E0424612094A449246F4
:101980006E43B244534500D28CE052469B1A180075
:101990003900019302F086FB019BBB4200D281E03B
:1019A000624B984200D97DE051464B46604F594406
:1019B000821C5B44B84200D9C8E05E4F6261B84205
:1019C00000D894E05846E1624146206263620029F3
:1019D00068D0F6185300584AA662944663445B0ADE
:1019E0009D425FD301235B422361E36081336371D6
:1019F0007E3B524A23701388002001339BB2138030
:101A0000E38008E02B78302B6FD10235AC426CD1EB
:101A100004601FE7032003B0F0BCBB46B246A946F2
:101A2000A046F0BD0A20F6E72100FB23F731FF3185
:101A30004A785B00E35C12021A438B78C9781B0476
:101A400013433F4A0906A01819433D4B4278E35C13
:101A500012021A438378C6781B041343394A3606A8
:101A6000A0181E43374B4278E35C12021A43837876
:101A7000C5781B041343344A2D06A0181D43324B6E
:101A80004278E35C12021A438378C7781B0413433D
:101A90003F061F43002914D1002E18D1002D1DD15F
:101AA000002F03D10D20B6E70C20B4E73900200049
:101AB000FFF71AFE012800D8FEE60428F2D1012023
:101AC000A9E72000FFF710FE0128E5D8F4E6310071
:101AD0002000FFF709FE0128E0D8EDE629002000EC
:101AE000FFF702FE0128DBD8E6E60B2093E7584615
:101AF000E1624146206263620029D3D00121F318DC
:101B0000A36253009B180A400B495B088C46624451
:101B10009B185B0A9D42C5D301235B422361E360AE
:101B2000813363717F3B64E77C180020F5FFFF0F72
:101B3000F5FF0000F50F0000FF010000A8450020A0
:101B400006020000160200002602000058466362EA
:101B50005A2362612062E162E15C23005A335B78C0
:101B60001B020B43414619430B1E9BD15C33E15CC6
:101B70000133E35C1B020B435E21615C09041943E2
:101B80005F23E35C1B060B43A36293002C4A94463D
:101B900063445B0A9D4285D301235B422361E3607A
:101BA00081336371203BE25C230060335B781B026E
:101BB0001343012B01D003231BE7594620000131B9
:101BC000FFF7C2FB0028F6D130236071E25C0133DD
:101BD000E35C1B0213433222A25C12041A43332338
:101BE000E35C1B061343174A9342E4D185239B0011
:101BF000E118E25C4B781B0213438A7812041A4303
:101C0000CB781B061343104A9342D4D18B239B00FD
:101C1000E118E25C4B781B0213438A7812041A43E2
:101C2000CB781B061343094A9342C4D186238722EB
:101C30009B009200E358A2582361E2600323D8E698
:101C4000FF0100005252614172724161000055AAC9
:101C5000F0B500234F464646D6468468C0B5060018
:101C600007680361002C06D13B78022B63D9BB6A5D
:101C7000002B60D01C007A89002A00D088E0012C5B
:101C800005D10220E0BCBA46B146A846F0BD3D00F1
:101C90006B699C42F5D22B789846022B30D0032BEF
:101CA0000FD0012BEDD163089946A1444B46590A48
:101CB0006B6A2800C918FFF747FB002847D00120AE
:101CC000E0E76B6AE1092800C918FFF73DFB00282F
:101CD000F5D1FE2331225B00A4001C402C19CD3B22
:101CE000A25CFF3BE35C12021A433223E35C1B0459
:101CF00013433322A45C24061C432401240913E06B
:101D00006B6A210A2800C918FFF71EFB0028D6D1EC
:101D1000FF2331225B0064001C40CF3B2C19FF3BAA
:101D2000E35CA45C24021C43012CAAD97B69A34276
:101D3000A7D93568ACE73B89002BA2D0BB6AB36159
:101D40007461002B9DD030370020F7619AE70123A2
:101D50004B449A464B46DB05DB0DEB1830331B78C2
:101D6000280099465346590A6B6AC918FFF7ECFADE
:101D70000028A4D153464A46DB05DB0DEB1830336F
:101D80001B781B021343424622420AD01C09CBE7B0
:101D90007969A31E02398B4206D25343FA6A9B1813
:101DA000CDE71B051C0DBFE700237461B36168E735
:101DB000F0B5DE4657464E46454604000B00E0B5FA
:101DC000026887B004921A782F2A01D05C2A01D1C8
:101DD0000133F8E720218C460022A4446146A2602A
:101DE0001A7800911F2A00D867E108221E00914648
:101DF000B94A05920B222021009802F0E1FF3578C4
:101E0000202D20D90023984608339A463200012716
:101E100056460023A246444690462F2D51D05C2DB5
:101E20004FD02E2D41D0B4420DD2802D55D99F2DAB
:101E300012D9DF2D62D9FC2D0ED92900A64807F052
:101E4000F5FB002855D00626300007B0F0BCBB4695
:101E5000B246A946A046F0BD4246D25D3F2AF2D91D
:101E60007E2A04D911008039C9B27C29EBD8300010
:101E70000838411E88410321404201400731A142F8
:101E8000E1D90098611C0555425442460233D55CA5
:101E900002345F1C202DC0D854462023D619E25CA2
:101EA000E52A00D114E104223EE00B2ECBD03B000A
:101EB00008240B264246D55C5F1C202DECD92F2D23
:101EC000ADD14646A0465446F7193B783E002F2B2D
:101ED00001D05C2B19D10137F7E72900059807F0ED
:101EE000A5FB0028AFD12B00613B192B01D8203D69
:101EF000EDB2009B1D553B000134DBE7290005983E
:101F000007F094FB0028F4D09DE74346002B9AD0BD
:101F10002023E25CE52A01D10522E254002220219F
:101F20003B789942524192002B23E25423682000CF
:101F30009846FFF78DFE071E00D0ADE030234344E6
:101F400001933F239B46A76902964346DA69BA424A
:101F500013D01B79002B62D143463A00587801997F
:101F60000123FFF795F9002805D0012342465B4283
:101F70000126D36168E74346DF61E0690378002BFF
:101F800017D05B464F464A46C57A2B40A371C37AA9
:101F90001F401A4205D10B22009907F04FFC002880
:101FA00059D0802325699B0320359D4209D3002306
:101FB000A3612B23E35C04265B0700D544E70526D9
:101FC00042E7A769002FF4D0EB05DA0D92462668A8
:101FD000002B08D161690137A761002908D1328936
:101FE0006B0993425AD2303656442561E661ACE71C
:101FF0006A0A10007389013B184003901A42F2D11B
:102000003000FFF76BFA012855D9431C42D07369A1
:10201000984245D3039BA3612B23E35CCBE7434664
:10202000019958780123FFF74BF9002832D1434634
:10203000DA69996918715B6AD31A8B428CD243466C
:10204000DB78022B88D14346521858780199012336
:10205000FFF736F980E72B23E35C029E5B071BD476
:10206000ED06ACD5049822690300D205D20D3033B9
:102070009B18DA7E997E12020A430178032901D067
:10208000A260B7E6197D5B7D1B020B431B041A435C
:10209000A260AFE60126D7E63E00D5E6A16188E75B
:1020A0006061023B023898420FD27389F76A584345
:1020B000C719A76197E70226C6E62B2380222000D6
:1020C000E254FFF7C5FD0600BEE60027A7618AE7D8
:1020D0000522E254042227E7D8A00010F0B54E46AE
:1020E0004546DE465746E0B589460600056883B09A
:1020F000002900D0B6E0EF682B69002F10D1002B2B
:1021000005D06B6901270224022B00D9A1E000242D
:10211000200003B0F0BCBB46B246A946A046F0BDC5
:102120006A69BA42EBD9002BF1D07C1CA24200D9DB
:102130008FE0012FEBD033680224984643465B6959
:10214000A34200D88CE043461B789A46022B00D16C
:10215000B4E0032B52D0012B00D081E063089B46F2
:10216000A3445B46590A43465B6A4046C918FFF7D9
:10217000EBF800283FD15B465A1CDB05DB0D4344DE
:1021800030331B78510A9B4643465B6A4046C91868
:102190000192FFF7D9F800282DD1019AD3055A46AC
:1021A000DB0D434430331B781B021343524622425B
:1021B00000D1B3E01B0900D097E06B69A3424FD96F
:1021C0000122210028005242FFF7F2F8002810D126
:1021D0004B46002B00D190E0012B41D06B69994513
:1021E0003ED2220049462800FFF7E2F8002800D13D
:1021F00083E0012834D10124644289E743465B6AC5
:10220000E1094046C918FFF79FF80028F3D1FE22E4
:1022100031215200A30013404344CD3A595CFF3AA8
:102220009A5C0902114332229A5C12040A43332158
:102230005B5C1B0613431B011A09002BBDD0012A4E
:102240000ED0A74200D162E76B6901349C4200D3F3
:102250006FE73368984643465B69A34200D972E74B
:10226000012455E72800FFF739F904000128F7D9C0
:10227000431CC0D06B69834200D949E72A69002A10
:1022800000D144E701224A4490461400934200D80A
:10229000022421003068FFF721F90128E0D0431C17
:1022A000A9D06B69002824D0EF68012F01D99F4283
:1022B0003ED344469C4237D34F463AE743465B6A97
:1022C000210A4046C918FFF73FF8002893D1FF22A2
:1022D0003121520063001340CF3A4344FF3A9A5CE5
:1022E0005B5C1B02134300D167E7012BA9D10124DA
:1022F0000EE7002C00D061E7DBE72B69EC60002BD8
:1023000000D105E76A69023A934200D900E7012249
:10231000013B2B616B7913436B71F9E61B051A0DB9
:10232000002B8CD16B6949E7012C99D94F4690E776
:102330007C1C9C4200D3FEE68BE7C046F0B5DE462F
:102340004E4645465746E0B585B004000568FFF7A0
:102350007FFC061E55D1A769EA69BA4259D1E369E3
:102360001B78E52B46D0002B44D0802326699B03A5
:1023700020369E425FD2A369002B5ED0226893462E
:10238000F205D10D8946002A69D161690133A36143
:10239000002900D185E05A465289700A013A9446D4
:1023A00030225A449046624610425BD15846FFF7AD
:1023B00095F80700012800D8CFE0431C20D05B46E9
:1023C0005B69984200D374E0821E029230225A4424
:1023D0009046023B0193029A67619A4200D3BEE0A5
:1023E0005B465B895A4313005A46D26A9B18EF69D1
:1023F000A36137E02800A169FEF7A6FF061E1ED0E4
:102400000126300005B0F0BCBB46B246A946A04646
:10241000F0BD2E002B793036002B2AD101233A0053
:1024200031006878FEF734FF002816D001235B42A4
:102430000126EB61E5E70023A3610726E1E72022FF
:102440000021E06902F0BCFC21000B22E069203190
:1024500002F0BCFC01232B71D3E7EF617FE7302250
:102460005A44904642464A44E26126613A001F00BF
:1024700073E7012331006878FEF722FF0028BFD1FF
:10248000EA696B6AA9692871D31A8B42C6D2EB78C4
:10249000022BC3D1521868783100013BFEF710FFC0
:1024A000BCE75846008972098242D8D30726A16149
:1024B000A7E720006169FFF711FE071EBDD00128C4
:1024C0004BD0431C9CD05B461B79002B49D1303349
:1024D0005B4498465B465B69BA1E023B02920193DD
:1024E0009A4260D25B465B8953435A46D26A9B1834
:1024F0001A0003935B46DA61802200219200404675
:1025000002F05EFC5B465B890022002B4FD0434605
:10251000B246A84601975D461E00A346039F1400DD
:1025200002E001349C4208D2012331006878E219AC
:10253000FEF7C6FE6B890028F3D032005646A2464D
:10254000019F5C46AB46454690469A4500D057E70A
:102550005B465B69023B01933DE7022651E700239E
:1025600045E730235B4498465A465B4641465878D7
:10257000D2690123FEF7A4FE002800D040E75B46A5
:10258000DA69996918715B6AD31A8B42A2D25B46E9
:10259000DB78022B9ED15B465218587841460123C6
:1025A000FEF78EFE96E700231A000393A2E7019B35
:1025B00011E7C046F0B54E464546DE465746E0B503
:1025C0000C0006001100056883B0012C25D96B6949
:1025D000A34222D9002A1CD12F00012293469C42FB
:1025E0001BD23B789946022B00D1C0E0032B26D0AA
:1025F000012B12D163089A46A2445346590A7B6ABA
:102600003800C918FEF7A0FE002800D1DEE0012046
:1026100004E0012A01D0934207D8022003B0F0BCA5
:10262000BB46B246A946A046F0BD01222800524250
:10263000FEF7BEFE0028F1D137687B69CDE77B6AE3
:10264000E1093800C918FEF77FFE0028DFD1FE221D
:1026500031215200A3001340FB18CD3A595CFF3AD8
:102660009A5C0902114332229A5C12040A43332114
:102670005B5C1B0613431B011A099146002B00D11A
:102680008DE04B46012BC8D06B699C42C5D22F7898
:10269000022F59D0032F2DD0012FBED163089A46A7
:1026A000A2445346590A6B6A2800C918FEF74CFE2B
:1026B0000028ACD13023984653465A1C0192510A47
:1026C0003A00DB05A844DB0D43442240274268D092
:1026D0000F22187802401A706B6A28002F71C918EF
:1026E000FEF732FE002892D1019BDB05DB0D43444F
:1026F000187016E06B6AE1092800C918FEF724FE7D
:10270000002800D083E7FE23A4005B001C402B00C0
:1027100030331C19F023E278207013406070A070F1
:10272000E3705B466A692B712B69911E8B4205D25F
:10273000012101332B616B790B436B714A452ED913
:1027400037684C467B694AE76B6A210A2800C9183A
:10275000FEF7FAFD002800D059E7FF2364005B0074
:102760001C402B0030331C1920706070D9E77B6A45
:10277000210A3800C918FEF7E7FD002800D046E717
:10278000FF223121520063001340CF3AFB18FF3A79
:102790009A5C5B5C1B021343994600D071E70020F2
:1027A0003CE71A706B6A28002F71C918FEF7CCFD40
:1027B000002800D02BE7019B4146DA054346D20DA5
:1027C000885C9B180F2290431870AAE7012353449A
:1027D00098465346DB05DB0DFB1830331B78380079
:1027E0009A464346590A7B6AC918FEF7ADFD002890
:1027F00000D00CE743465246DB05DB0DFB183033B7
:102800001B781B0213434A46224205D01B099946F6
:1028100000D036E7002001E71B051A0D9146002B7A
:1028200000D02EE70020F9E610B582B00C1E019012
:10283000009125D0080001E03A2B1BD0037801302D
:10284000202BF9D80F4B1968002902D000201860FE
:1028500008700199002902D000201960088000202A
:10286000002A01D102B010BD0022684601A9FEF77E
:10287000DBFFF7E72378302B02D10234A042E1D00E
:102880000B20EFE77C180020F0B54646D6464F46B1
:10289000C0B58EB0040016000191002800D18AE076
:1028A0003F2717403A0002A901A8FEF7BDFF051E09
:1028B00008D00023236028000EB0E0BCBA46B14621
:1028C000A846F0BD029B019903A898460393FFF721
:1028D0006FFA1C23334000285DD169460C202B225F
:1028E00009188A5C7F2A68D8002B5AD0730766D4EF
:1028F0006B4611229B7C1A425BD136076AD4434651
:10290000DB6923620A9B6362DE7E9A7E360216438F
:1029100042461278032A05D15A7D197D12020A43D4
:1029200012041643A660597F1A7F090211439A7F49
:10293000DB7F12040A431B061343E36099464346B8
:102940002360DB888022A38000236374E3616361DA
:1029500028339A46A244277400215046920002F080
:102960002FFABF06A7D54B46002BA4D06361434680
:102970005F897F02B94563D931002068FEF7AEFD5B
:102980000600012859D94B46DB1B9946431CF1D15F
:102990000125A0618DE7002B01D0042813D005008C
:1029A00087E76B469B7CDA060BD4B607A7D5DB0717
:1029B000A5D507257DE709257DE7062579E70825C3
:1029C00077E7042575E703A8FFF7B8FC08231F4342
:1029D0000028E4D10A9EFEF7B3FC030AB073F37338
:1029E000030C000E337470740A9BDE7E9A7E3602EE
:1029F000164342461278032A05D15A7D197D1202E8
:102A00000A43120416432022DA72002241460A9B2E
:102A10009A76DA760978032901D11A755A75002257
:102A20000A9B1A775A779A77DA770123424613710D
:102A3000002E27D140231F4361E7A061022538E71C
:102A40004B46A661DB0500D135E743465B69023E94
:102A5000023B9E42F2D243465B895E434346DB6AB9
:102A6000F618002EEAD04B465A0A43469219E26104
:102A7000587851460123FEF70BFC002800D11AE7D5
:102A8000012516E7D3693100002203A89946FFF714
:102A900091FD002883D149464046FEF755FC434648
:102AA000013EDE600028C5D0012502E7F0B557469B
:102AB0004E464546DE46E0B51E00002383B00400C6
:102AC000884617003360002809D00368002B06D021
:102AD0001A78002A03D08188DA88914207D0092029
:102AE00003B0F0BCBB46B246A946A046F0BD58783C
:102AF000FEF7CAFB01220242F1D1607C0028EFD12F
:102B00001100237C194089461A4200D18FE0656983
:102B1000E3685B1B9B46BB4200D9BB465B46002B70
:102B2000DED033005E469B4627680190EB05D90D49
:102B3000002B4ED16A0A11007B89013B19408A465D
:102B40001A4235D0A0697B690238023B98423CD2D8
:102B50007B89FA6A58438018002836D08022504476
:102B600005009200964243D3720A009252449A4260
:102B700002D952469B1A0093009B2A00414678785E
:102B80009A46FEF785FB002848D1237C7F2B60D82E
:102B9000009B5D025B465A461B68761B5B191360FF
:102BA0006369A844ED186561002EBFD1019897E7CD
:102BB000002D37D1A068012807D9431C2ED07B698E
:102BC000A061023B02389842C2D302230220637400
:102BD00086E728239A46A24480239B005D1AB542CB
:102BE00000D935002A004046514402F0EFF8D1E701
:102BF000E26982421DD028218A46237CA2447F2B91
:102C00001BD801232A0051467878FEF741FB0028A3
:102C100004D16169E561C905C90DDDE701234846B5
:102C200063745DE7A1692068FEF758FCC3E70720DD
:102C300056E728239A46A244EBE7012351467878C9
:102C4000FEF73EFB0028E9D17F23227C134023744A
:102C5000D7E7E3695B1B53459AD25B0243441800F4
:102C600028239A468022A2445146920002F0AEF8F0
:102C70008EE7C04670B5041E09D00368002B06D04D
:102C80001A78002A03D08188DA88914201D009207D
:102C900070BD5878FEF7F8FAC007F8D4402210004B
:102CA000237C18401A42F3D05BB22668002B37DB36
:102CB0003000216AFEF748FB00282FD12022656AE8
:102CC000EB7A1343EB72A36821689AB2120AAB76CF
:102CD000EA760A78032A03D11A0C1B0E2A756B7543
:102CE000E3681A0A2B776A771A0C1B0EAA77EB7720
:102CF000FEF726FB030AEB75030C2B760023A87561
:102D0000AB74EB74000E0133687633713000FEF75C
:102D100055FC4022237C93432374B9E70120B7E795
:102D200021000123E26970782831FEF7C9FA0028F2
:102D3000F4D17F23227C13402374B9E770B5041EBD
:102D400009D00368002B06D01A78002A03D08188A6
:102D5000DA88914201D0092070BD5878FEF794FAC4
:102D6000C007F8D4237C26685A063CD55BB2002BFA
:102D70004DDB3000216AFEF7E7FA002830D120222F
:102D8000656AEB7A1343EB72A36821689AB2120A60
:102D9000AB76EA760A78032A03D11A0C1B0E2A7541
:102DA0006B75E3681A0A2B776A771A0C1B0EAA77E1
:102DB000EB77FEF7C5FA030AEB75030C2B760023BD
:102DC000A875AB74EB74000E013368763371300074
:102DD000FEF7F4FB4022237C93432374002801D0A8
:102DE0000120B9E72668002EB5D03378002BB2D089
:102DF000A288F3889A42AED17078FEF745FA012294
:102E00000300100018401A42A5D12060A4E7210059
:102E10000123E26970782831FEF752FA0028DFD1E9
:102E20007F23227C13402374A3E7C046094A830012
:102E30009A1810B514684022544080322240064C43
:102E4000C000A44663441A60044B9C466044416041
:102E500010BDC04604C0014004D001400040014004
:102E60000123D0228340120693629361094A8300B2
:102E70009A1811684022514080320A400649C00029
:102E80008C4663441A60054B9C46052360444360AE
:102E90007047C04604C0014004D0014000400140DA
:102EA0008023DB051868000F7047C0460FB400B5DB
:102EB000084883B003F080FD049B002B07D005A9D0
:102EC0001800019103F0EAFB034803F075FD0120AF
:102ED00003F0FCFBE8A00010689D001070B5EFF354
:102EE000108C72B60D4D2B68002BFCD0BFF35F8F9A
:102EF0000724CB08C618C05C01230C40A3401C006B
:102F00000440034207D118433070BFF35F8F2C6039
:102F10008CF3108870BD1000FFF7C8FF2C0100D0A3
:102F2000F8B54746CE46884680B5EFF3108C72B6AA
:102F30001C4D2C68002CFCD0BFF35F8F9A4222D826
:102F400007210126894602E00132934218D34D46FB
:102F500037001540AF40D4080119045D2742F3D172
:102F600010003C430C70BFF35F8F00220D4B1A60C2
:102F70008CF3108800280EDBC0BCB946B046F8BD03
:102F800001204042EFE7BFF35F8F00232B608CF3FB
:102F90001088012040424346002BEDD00898FFF7EF
:102FA00085FFC0462C0100D0044A1078431CDBB2D8
:102FB000172B00D9102313707047C0461C10002037
:102FC00010B5064B064C82B00100009318221F2357
:102FD0002000FFF7A5FF02B010BDC046F8A000100A
:102FE000041F00200021044B044ABFF35F8F02C37B
:102FF0009342FAD17047C046000100D0800100D052
:10300000054B064A1360064A136053609360D36011
:1030100013615361936170478080808000E400E019
:1030200004E400E01F2318401E3B8340002905D024
:10303000C021044A4900535013607047802201495F
:103040008B50FAE700E100E070B50D00EFF3108659
:1030500072B60F4A1368002BFCD0BFF35F8F0D4B85
:1030600010309B6884001B590B4A934203D09D4249
:1030700001D000F011FF074B9B681D51BFF35F8F1C
:10308000BFF35F8F0022024B1A6086F3108870BD79
:10309000240100D000ED00E0CD010010F0B557464E
:1030A0004E46DE464546E0B585B006000091170065
:1030B000EFF3108B72B66A4A1368002BFCD0BFF393
:1030C0005F8F0025674B5D579A46002D00DAA9E017
:1030D0006B00654C01935B199B009846A146C14467
:1030E0004B4652469B7910361370604BB6009B6876
:1030F00099590B1B2F2B33D95D4B994200D0ACE073
:10310000019B42469C465B4B6544AD0063535A4B62
:103110000232A218043B9B1A1B05584A5B0D651925
:1031200013436B80564B0121AB80FF23AB71009B97
:10313000EF71AB604B460B4319004C4B9B689951A8
:10314000BFF35F8FBFF35F8F0022454B1A608BF395
:10315000108805B0F0BCBB46B246A946A046F0BDFB
:1031600001200A008243D3798C46BB4231D84546C0
:10317000130044491B1B5B415943090D3D4B6353ED
:103180003D4B02356519043B5B1B1B053B4D5B0D3D
:103190002B43AA464D466B800425AC465546E04479
:1031A000131F44441B1B1B055B0D1D434B469971AC
:1031B00000999D8099604946DF71334B014313604C
:1031C000BBE75800C01880002018C179B9422FD938
:1031D00002000623D356002BF3DA02932B4B6146F1
:1031E0000393131D9A4604235B429C46E1445046D8
:1031F0004B461B1A1B055B0D9C46204B9571984650
:103200006346404603439380019B5A199200039BF7
:10321000A418A380029B1C4AA371009B2260E77143
:10322000A3608AE700F038FE002553465D574FE75C
:10323000908802934005131D9A46031561469C46EB
:103240004046D444634604302018181AE023000591
:10325000400D1B0218430390C5E700F01DFE4FE729
:10326000240100D0AE4500202010002000ED00E039
:10327000CD01001000A1FFFF5010002000E0FFFF73
:1032800001BDFFFFAAAA00000148804701BD000060
:1032900070B501240443EFF30581EFF3108C72B68F
:1032A000214A1368002BFCD0BFF35F8F1F4B050032
:1032B0001F4AED1A6D416A43120D1E4D8900AE681A
:1032C00052B27658A6421CD00621595691421CD0C3
:1032D00012215956914222D01E215956914220D096
:1032E0002A2159560324914210D0134B19781A7091
:1032F0008171BFF35F8F00220B4B1A608CF3108833
:1033000070BDAB680D4C5C50EFE7002461000919FB
:1033100089005B18FF21997109499980E5E701242B
:10332000F4E70224F2E7C046240100D02010002078
:10333000AAAA000000ED00E0AE450020CD0100107B
:1033400001BDFFFF024B9C4661448900016070474C
:103350004000003470B5114C114DAC420FD2FF2625
:103360002368002B0CD0FFF71FFE01002000FFF7A1
:10337000E9FFA680BFF35F8F0834AC42F0D370BD85
:10338000FFF712FE01002000FFF7DCFF2671BFF3FC
:103390005F8F0834AC42E3D3F1E7C0460812002047
:1033A0001012002010B50400FFF7FEFD0100200000
:1033B000FFF7C8FFFF232371BFF35F8F10BDC04627
:1033C00010B504000120FFF7FBFD034BC3189B0061
:1033D0002360BFF35F8F10BD400000340A4B1968B3
:1033E000EFF3108072B60A68002AFCD0BFF35F8F3B
:1033F0001B68BFF35F8F00221A6080F3108840BF04
:10340000002000217047C046A4450020F0B5DE46EC
:1034100057464E464546E0B587B0EFF30583032295
:1034200001251A40954091008846A946B34B039266
:103430005C58B34B1D60B34B04934B46B248436397
:103440000823E55E002D37DAA3881BB2002B00DBD2
:10345000ADE0A379002B00D0EEE00823E05E002869
:1034600020DB430062691B18DB00D3189E68DD680F
:10347000731C00D111E1A44801004144826A0B6928
:10348000B71A9B1A9F4215D30123026A03988340FF
:103490001A420FD09C4800F047FB8D4202DCCCD191
:1034A0008642CAD940BF07B0F0BCBB46B246A94667
:1034B000A046F0BD0E61EDE762696B0092465B19B4
:1034C000DB009A4453469E68DF6800F02DFB8F4274
:1034D000BADC00D103E1002F00DAE8E0524653469F
:1034E00052691B699346049A934200D1D9E052462F
:1034F0000821605E528800045946104398470090A6
:1035000001910099019A0B001000134300D1CEE005
:1035100013000A00B61A9F41002806DB7A4800F023
:1035200003FB009E019F36184F4153469E60DF60AB
:1035300000229A5E002A00DA86E753009918606933
:10354000C900411802938B68C9689B46B94200DDE7
:103550007AE702D1B34200D976E708239C46A44417
:10356000059565462281A446029B2C0006E0530087
:103570009918C90041188D68C968AB469B18DB00D3
:10358000C318B94206DC00D1B3E01C000023E25EA0
:10359000002AECDA230064469C4653461A806346B0
:1035A000059D1D80A3881BB2002B00DA51E722691C
:1035B000EFF3108172B61368002BFCD0BFF35F8F5E
:1035C0000123A7885B42A3803FB22369BFF35F8FCB
:1035D00000221A6081F31088002F00DA39E72300F7
:1035E000083322009A4666697B00DB19DB00F3187A
:1035F000996850468C460824115FDD68002910DB6D
:10360000029306E0AB4244D00023E15E2000002993
:1036100006DB4C006418E4003419E368AB42F1DDCA
:10362000029B078000201F5E1980002FDCDA140047
:10363000A379002B00D110E70023A37126000823F3
:10364000E15E08364B1C00D12CE70800A2466569F4
:1036500002E03E004B1C1AD04B005B18DB00EF1859
:103660000A008C46E95E7B881BB2002BF1DA01234D
:103670005B42DC17BB60FC60824205D05346318060
:103680001B893B8053461A8160464B1CE4D154464B
:10369000E5E6A3686345B7D9C2E76B1C00D0EAE64C
:1036A000F8E65B4658461B69984700281BD15346ED
:1036B0001B8822692381EFF3108372B611680029F9
:1036C000FCD0BFF35F8F514662880A802269658013
:1036D000BFF35F8F0021116083F31088B4E6864248
:1036E00000D8F8E6B0E65B461A685B680092019382
:1036F00007E7B34500D848E74CE7C04680450020BF
:103700003C7005400D3400100040054070B52E4C53
:103710002569002D04D00A212C48FFF713FE70BD47
:103720002B4E0321300000F0F5F9E660FFF73CFC7A
:10373000284B03229C46D02322701B061B680121C4
:103740006370254B6044A3600F238000206102203A
:10375000638063694942A18019800231198647312B
:103760001D83585218315A5275325C3999521832A9
:10377000013199521832013199521832013199525E
:10378000083518329D5202311832995218320131DF
:103790009952183201319952183201319952183226
:1037A000013199521832013199520C4B0C49DC60AD
:1037B00001303562FFF748FC01210320FFF732FC9E
:1037C000084B1D60A7E7C04668100020A4450020F4
:1037D0000040054040000034FFFF100080450020FD
:1037E0000D3400103860054070B501000469EFF336
:1037F000108C72B620680028FCD0BFF35F8F0220C7
:103800000D5E4C6968004019C00024180869002D3D
:1038100036DB26884E80BFF35F8F002606608CF370
:103820001088E36063880498013320615B04059885
:103830005B0CA26060611A1C002B1FD093B228049D
:10384000628018430A69EFF3108C72B61368002B7C
:10385000FCD0BFF35F8F8B8823808D800B69BFF313
:103860005F8F00221A608CF310880B7801329A4027
:10387000CB6808498C4663441A6070BD0122DDE7BD
:10388000BFF35F8F002303608CF310880120404258
:10389000F3E7C0463C20000010B543890A14934268
:1038A0001ADD53009B184269DB00D3180469EFF35B
:1038B000108C72B62268002AFCD0BFF35F8F5A8842
:1038C000090494B2090C8A4208D00369BFF35F8FE0
:1038D00000221A608CF31088002010BD8022120292
:1038E00014435C80012302698371BFF35F8F002161
:1038F00011608CF31088044902788C469340C268AA
:10390000012062441360E8E73C200000F0B5C646A1
:1039100000B582B0040000F00FF9FA2206000F0093
:10392000200000230021920001F0E0F98019794184
:1039300004000D1E02DA01242E4D64420626764252
:10394000F71736196F41AF4214D811D000F0F4F8D0
:1039500032003B00121A8B41002B15DC002B46D0A5
:103960002000290000F0F2F802B080BCB846F0BD9B
:10397000A642EBD90026002700F0DEF832003B001B
:10398000121A8B41002BE9DD00F0D6F832003B0023
:10399000121A8B41002B0ADB00230193164B3200D5
:1039A000009316483B00FFF71FFF0130D8D00023DB
:1039B0003900B0469C46124A1248536A994204D8CC
:1039C000966A4645CCD29942CAD10668EFF3108771
:1039D00072B63368002BFCD0BFF35F8F0368BFF370
:1039E0005F8F66461E6087F3108820BFE5E7002AD8
:1039F000B6D0C9E7FFFFFF7FDD330010681000205D
:103A000000400540A4450020F0B557464E46DE462E
:103A10004546E0B506000F0085B0EFF305839946F3
:103A20008B46002B12D0384900204B6ABB4206D38C
:103A30008A6ADB1B591E8B41B2424041184305B0D4
:103A4000F0BCBB46B246A946A046F0BD2F4B9A46F5
:103A5000DB68984653461B784046039300F064F8B1
:103A60004246039B040004339B009B580D001B1A25
:103A700039003000001BA941894510DC0DD020BF62
:103A8000214A0020536A5B45D9D3926ADB1B591E39
:103A90008B41B24240411843D1E78342EFD900F055
:103AA0004BF832003B00121A8B41002B1ADB00232B
:103AB0000193174B3200009350463B00FFF794FEF2
:103AC000011E0FDD104B5A6A5A451BD39B6AB34245
:103AD00016D35046FFF7E0FE0B4A0020536A5B45C1
:103AE000ADD3D2E7084A0020536A5B45A7D3002034
:103AF000926ADB1BB24240415A1E934118439EE733
:103B00005A45E6D120BFE4E7004005406810002098
:103B1000DD33001010B5024A0248FFF7DFF910BD8F
:103B200014A10010081F00200300416A0A00986ACF
:103B3000596A8A42FAD17047034B596A0A00986A57
:103B4000596A9142FAD1704700400540064A536ACB
:103B50009942FCD807D1044B02E05A6A914202D143
:103B60009A6A9042F9D8704700400540F8B5DE46A1
:103B70004E4657464546E0B58B4605000A99180063
:103B8000160000F08FFA0A9B6C001F02324B64197A
:103B90009C46A4006444636881469F4200D96760E4
:103BA0002B1FDBB29846012B30D9C02380229B010A
:103BB000E31812011A60294BAD0059599A460029A1
:103BC0001BD17301E026226853401E4080234246E9
:103BD0005B01E3181E60012A30D9802380229B01FB
:103BE000E31812011A6053464A4667605A51F0BC06
:103BF000BB46B246A946A046F8BD586900F052FA45
:103C0000013043001B18033BFDD2DAE75B46012B72
:103C1000CBD1C02303229B01E3181A60023AA368A8
:103C20001A42FCD07301E0262268AD0053401E40CA
:103C300080230A4A5B019246E3181E605A462168B7
:103C4000514003220A401A6001225B469A40A36851
:103C50001A42FCD0C1E7C046008000400C1F002083
:103C6000F0B546464F46D646C0B51F00344B44001B
:103C70009C462418A4006444636888461600FF2B01
:103C800002D880235B006360031FDBB29A46012BDE
:103C900030D9C02380229B01E31812011A60294BFE
:103CA00085005959994600291BD17301E0262268E5
:103CB00053401E40802352465B01E3181E60012AD8
:103CC00030D9802380229B01E31812011A608023DF
:103CD0005B0063604B465F51E0BCBA46B146A84604
:103CE000F0BD586900F0DEF9013043001B18033BBA
:103CF000FDD2DAE74346012BCBD1C02303229B013F
:103D0000E3181A60023AA3681A42FCD07301E02655
:103D10002268850053401E4080230A4A5B01914679
:103D2000E3181E6042462168514003220A401A608F
:103D3000012342469340A2681342FCD0C1E7C0462B
:103D4000008000400C1F0020014B8000C0587047CD
:103D50000C1F0020F8B5040021481E0017000D00BC
:103D600000F0A0F90100380000F09CF9069B360431
:103D70001B031E432368002B20DB1A4B1A49E31850
:103D80005A1E93418022920194465B421B0B174AB4
:103D90001B0363441360164A13601F000A689743AD
:103DA000FBD1144B2560E2182123A0601360236827
:103DB000002BFCDA0823E6601360F8BD3F2322687D
:103DC0001340AB42D9D1A3681B051B0D8342D4D14C
:103DD000EE22E368D2021340B342CED1EDE7C046F3
:103DE000001BB7000040FDBF08C0004000E00040DD
:103DF00000F00040043000008023024A9B000B4387
:103E0000D362704700800540002310B50100988AF6
:103E10001B8B984710BDC046162310B501001888AB
:103E200002331B88984710BDF8B54746CE4680B58B
:103E30000F1E18D0142399460433040000250126D0
:103E400098464B461888434621681B88984701C40A
:103E5000431E984101350640AF42F2D13000C0BC4C
:103E6000B946B046F8BD0126F8E7C046AA23064A7F
:103E70001B0113608D235B00D3600449044B196060
:103E80005368002BFCDA70470040024000B0FA0093
:103E9000006002407047C04610B50148FFF706F8C1
:103EA00038A1001070B5074D074EB54209D2002465
:103EB000013E761BB60808CD984723000134B34273
:103EC000F9D170BD389C0010749C0010054B064A57
:103ED00006491A60064A074B1A6010000B6898439F
:103EE000FBD1704700E00040BFCDFBFE08C00040A2
:103EF000FE7F3C0000F00040044BDB6C002B03D144
:103F00008022034BD2021A607047C0460000115055
:103F10004C201150044A054B1A60054A1368DB0116
:103F20008033FBD17047C046FFFFFF0100F0004027
:103F300008C000404022034B9A675A671A67DA6646
:103F40007047C04600F0014010B5FFF74BF810BDB8
:103F500070B5044D044CA968C022200000F036FF63
:103F6000AC6070BD00ED00E000000020002310B543
:103F7000294C82B0A367FFF779FF0122274B1A6013
:103F8000636C012BFCD10322254B1A60224A936BF0
:103F9000012BFCD1013300930121224A2248043332
:103FA000FFF7D8FE052301210093204A2048FFF7A0
:103FB000D1FE0022022104201E4BFFF751FE0022F9
:103FC000012105201C4BFFF74BFE0022002107209A
:103FD0001A4BFFF745FE002200210820174BFFF780
:103FE0003FFE8023DB000093002200210920134BB9
:103FF000FFF7BCFD0022104B00210620FFF730FE2A
:104000000420FFF7A1FE0E4900F04CF8010000204B
:10401000FFF7F2FE02B010BD008000403CB000404F
:1040200030B00040002F685900800240008C864765
:1040300000C00240001BB70040597307006CDC024F
:1040400040420F0001480421014B18478010002016
:10405000293E0010124A936F9B0815D29066D166D4
:10406000002905D0FFE7FFE7FFE7516F106F7047AA
:1040700004B580210906C2175140002800D0C8436A
:1040800005F09AFD002104BDF0B5146E556E576F12
:10409000166FFFF7E3FF1466556657671667F0BDA6
:1040A000000000D0114A936F9B0813D2106651662E
:1040B000002905D0FFE7FFE7FFE7516F106F70475A
:1040C00004B5002801D00020C04305F075FD002193
:1040D00004BDC046F0B5146E556E576F166FFFF7EE
:1040E000E5FF1466556657671667F0BD000000D0FF
:1040F00094464A4A926F9208624601D228E0C0462E
:10410000F0B5464E346E756E776F366F00F020F85E
:104110009446424A14665566576716676246F0BD74
:1041200094463E4A926F9208624601D254E0C046DD
:10413000F0B53A4E346E756E776F366F00F04CF80E
:104140009446364A14665566576716676246F0BD50
:10415000002B24DB11D000293EDA00B5C9434042D0
:1041600000D1013100F038F8C943404200D101319B
:10417000DB43524200D1013300BD002AEBD10028BD
:1041800001D1002905D00020C90FC90701D1C043C2
:10419000410800B505F0F8FC0022002300BD00B581
:1041A00000290ADBDB43524200D1013300F014F84E
:1041B000C943404200D1013100BDC943404200D152
:1041C0000131DB43524200D1013300F005F8DB43FB
:1041D000524200D1013300BD002923D1002B18D158
:1041E000002A0CD0BC460D4F38667A6600210023A9
:1041F000FFE7FFE7FFE77A6F386F674670470028F1
:1042000001D00748010000B505F0BEFC00220023E4
:1042100000BD02000B00002000217047000000D00C
:10422000FFFFFFFF002B00D0BFE0130C28D1002AB6
:10423000E7D080B4114F39667A66FFE7FFE730B404
:10424000040C7B6F396F1B0423433B667A66FFE7E0
:10425000FFE7FFE7C04684B27B6F3D6F1B0423433B
:104260003B667A66FFE7FFE7C04600232C042D0C6F
:104270007A6F386F00196941B0BC7047000000D0F8
:10428000F0B594460025140E01D112020835140F22
:1042900001D112010435940F01D192000235D40FDF
:1042A00001D152000135D40B0134254F7C66254CD9
:1042B0003C660E0C93B2FFE7FFE7FFE73C6F6643F7
:1042C000360C7703BE467343DF0B5B04C01AB9415B
:1042D000130C7343DB18C91ACE086643360CB64478
:1042E00093B273431F0F1B01C01AB941130C7343E0
:1042F0001F0B1B05C01AB941860D8F023E43664352
:10430000360C092D24DB520A7243801A7703460AC1
:104310006643360C16235B1BDE40DF40BF19644644
:104320006643821B7046043506330100D940A8401D
:10433000C01900D30131A24206D20023F0BD000013
:10434000000000D0FFFFFFFF121B0130F3D3F1E7A5
:1043500009277F1BFE406446A2B27243801A00D236
:104360000139220C7243130C1204821A99410B007A
:104370007046043513370100F940A840801900D376
:104380000131002B02D1A2420AD2F0BD013000D38C
:104390000131121BFAD2013BF8D1A24200D2F0BD8A
:1043A000013000D30131121BF7E7F0B51C0C00D02F
:1043B00080E00CB400251C0A04D11B02160E334306
:1043C000120208351C0B04D11B01160F33431201D6
:1043D00004359C0B04D19B00960F334392000235A9
:1043E000DC0B02D192185B4101351C009718644127
:1043F0000134464F7C66464C3C660E0CFFE7FFE7F7
:10440000FFE7C0463C6F6643360C7703BE4697B263
:104410007743C01B00D20139C01B00D201399FB2C3
:104420007743C91BC91B170C77437E04FF0B801B06
:10443000B941CE086643360C0C2D33DBB644120B63
:104440001F053A431B0B97B27743C01B00D20139BB
:104450009FB27743C91B170C77433E043F0C801B68
:10446000B941860D8F023E43664329277F1BFE40DC
:104470000C3D7746AF40BF1930BCA2B2ABB272431D
:104480007343801A9941220C7243130C1204801A50
:10449000994102000B000137001BA941F9D2781E97
:1044A0000021F0BD0C277F1BFE4077467F0BAF40FD
:1044B000FF19E0E700245D1C07D0144F7D663966C4
:1044C000FFE7FFE7FFE7FFE73C6F95B29EB265436A
:1044D0006643401BB141150C1E0C65436643360410
:1044E0002F0C3E432D04401BB141994204D20200DF
:1044F0000B0020000021F0BD01D19042F7D3801ABB
:10450000994101349942F2D3F6E70000000000D04F
:10451000FFFFFFFF48404140484018B41B4B5B6819
:10452000FC46019308BD04DFBF47001018B4174BC9
:104530001B68FC46019308BD00DFC9470010944684
:10454000134A926F920809D2624618B40F4BDB6887
:10455000FC46019308BD0CDF814A00100C4AF0B5FF
:10456000146E556E576F166F6246FFF7EEFF084ADE
:104570001466556657671667F0BD18B4034B9B6801
:10458000FC46019308BD08DF254900109013002068
:10459000000000D0FFB550404240504059404B40D1
:1045A000594000E0FFB5154F4C00640D03D0BC42EC
:1045B00004D10C0314D80020090D09055C00640D1A
:1045C00003D0BC4204D11C030AD800221B0D1B05DA
:1045D00001264B4009D44B4003D58B4200D1824287
:1045E000FFBD9942FCD19042FFBD0B43DB18034352
:1045F0001343F5D0C9434918FFBD0000FF07000071
:1046000000B5FFF7CFFF804100BDC04600B5FFF702
:10461000C9FF01D9002000BD012000BD00B5FFF792
:10462000B9FF01D9002000BD012000BD00B5FFF792
:10463000B1FF804100BD012040054A00121804D896
:104640005A00121801D8002070470120704700005E
:104650000021002805D17047C1174840401AFAD000
:10466000C90713B5064B1B6898470CBC441CA240F5
:104670001005120B0349091B09051943114310BD0D
:10468000A04500201F04000010B54C00620D8023DF
:10469000D218DB00D21A5B057E2A10DD9E3A13DAAF
:1046A000CC170903490819435242D1406400013430
:1046B0001532202A05DAD0400843604310BD00209F
:1046C00010BD0846604310BDC80FC018013810BDAA
:1046D00018B4044B5B6AFC46019308BD24DF314CDF
:1046E0000010000090130020132370B51D78012DD9
:1046F00019D014DD1F48FFF78FFB06001E48FFF797
:104700008BFB1E4C80223100200000F05FFB022D4D
:104710002DD01B48FFF778FB1A4B186070BD1A4B61
:10472000164CA364F5E7184B144C23606360A36038
:10473000E36023616361A361E36123626362A36257
:10474000E36223636363A363E36323646364A36437
:10475000E36423656365A365E36523666366A36617
:10476000E36623676367A367E367A364D1E7064B48
:10477000A364CEE75344000053460000901300208A
:104780004C330000A04500208D47001007B560465F
:1047900001880A0A0230DF2AFAD1C9B2820804D39A
:1047A000028840880004104300E00068014A50502D
:1047B000039007BD901300200FB403BC0CBCF0B5F0
:1047C0000124E407634000E0F0B50C0DCF0F661E36
:1047D0003605891B640503D3C943404200D3013128
:1047E000640D03D0661CF60A07D0E41B00207F008E
:1047F000791C89078912803C24031D0DDF0F6E1E72
:1048000036059B1B6D0503D3DB43524200D30133B6
:104810006D0D03D06E1CF60A07D0ED1B00227F0041
:104820007B1C9B079B12803D2D032F1B661B58D4BE
:10483000A446202E46DA20371400BC401D00BD409F
:10484000F24033412A4380185941CB0F05D0C94368
:10485000C043002264425041514162464D0D28D16F
:104860000D0D07D100281FD0241940414941013ABC
:104870000D0DF9D0640006D3013000D30131002CB6
:1048800001D140084000013A0BD4941CE40A04D141
:1048900012051144DB071944F0BDD907204B194319
:1048A00000E0D9070020F0BD0029DDD1002CDBD1CC
:1048B000F0BD0132C6074008CD0728434908002E45
:1048C000E1D0D9E73C2E29DA203E40371400BC4025
:1048D00000D00124F24014431A00BB401C43D317FC
:1048E000ACE7AC46202F08DA20360400B4400D00B7
:1048F000B540F84039412843A5E73C2F0CDA203F6A
:1049000040360400B44000D00124F84004430800BD
:10491000B1400C43C117EAE710001900002494E7E6
:104920000000F07FF0B50C0D661E3605891BE60A07
:104930006405640D02D0651CED0A04D0002001213D
:104940000905803C2403A4461C0D671E3F05DB1BA4
:10495000E70A6405640D02D0651CED0A04D000224C
:1049600001231B05803C24037740644497B484B240
:1049700096B27443070C7E43150C6F4380B26843B4
:10498000361802D3012000043F183004350C0019FA
:104990007D41844688B29AB250430C0C62431F0C8E
:1049A0007C438EB27E43921902D301263604A419A9
:1049B0001604170C3618674101BC81B29AB25143F4
:1049C000040C62431B0C5C4380B25843121802D3A0
:1049D0000120000424181004130C401863412D1802
:1049E0005E410020474106BC88B293B258430C0C8C
:1049F0006343120C544389B251435B1802D3012123
:104A00000904641819041A0C091862416D185641FA
:104A10000020474118BCF902720D1143F0026A0DE3
:104A20001043ED020A0D03D16D1940414941013B8C
:104A3000124E9B1B7600B3420ED26D0007D301309D
:104A4000002671416646354301D1400840001B05F0
:104A5000C918E4072144F0BD0BDA013306D1013057
:104A600004D101314F0D01D04908F2E7E1070020E0
:104A7000F0BD013631050020EBE70000FF03000028
:104A8000F0B51C0D671E3F05DB1BE70A6405640DCE
:104A900002D0661CF60A04D0002201231B05803CCC
:104AA0002403D0252D060026F6432E661E096E66C9
:104AB000CE0FF619B44649004F0D02D07E1CF60AFF
:104AC00003D000200021403F3F033E1BB600B4440A
:104AD000013F7F05C91B49082E6F013676089C02ED
:104AE000950D25437543ED137543AD1301356D10D9
:104AF000F603761B0CB4CC02450D2C43A2B2B3B224
:104B00005A43270C7B43350C6F43A4B26C431B19EB
:104B100002D3012424043F191C041D0CA4187D4158
:104B200024196D41009A91B2ACB26143170C7C43D9
:104B30002B0C5F4392B25A43A41802D301221204F1
:104B4000BF182204230C52187B41019C6C431B1993
:104B5000520ED9010A434401A01A81B2B2B25143A4
:104B600003145A43360C734387B27743D617D219CE
:104B700000277E4136049B191704160C7F185E41EE
:104B80007316ED18F301002680337541A90F06D185
:104B90006400690AE8055B0A184309D22FE0042281
:104BA000944480337541A90AA8059B0A184326D36B
:104BB000404149412404009A019B0D005543641B68
:104BC0004343E41A95B286B27543170C7E43030C37
:104BD0005F4392B25A43B61802D301221204BF189F
:104BE0003204330C52197B4152429C41002C02D4B6
:104BF0000022013051414008CA071043490802B061
:104C00006246D7079210084BD218084B9A4203D23B
:104C100012058918C919F0BD0020002A01DC3900ED
:104C2000F0BD01331905F5E7FD030000FE070000A4
:104C3000002200B5203200F004F8080000BD00009A
:104C400000220B150AD410B5944600F031F8141464
:104C5000013400DA0021CB17144C2047002000213A
:104C600070476244343A0CD40C2A07DA04009140AD
:104C7000904052422032D440214310BDD843D94302
:104C800010BD203207D40C469440524220321141CC
:104C9000D040204310BD0800C917203203D452422F
:104CA0002032104110BD1800190010BD634C0010D7
:104CB0000A0DCC0F531E1B05C91A520503D3C94355
:104CC000404200D30131520D03D0531CDB0A07D000
:104CD000121B00206400611C89078912803A1203AC
:104CE000014BD21A70470000FF03000051434343B9
:104CF000C9188C46110C83B24B4310B4040C6143A9
:104D000092B280B2504362431C041B0C001910BCC9
:104D100059411304120CC0185141614470470000FE
:104D2000132310B512481C78FFF776F80100012C08
:104D30000AD003DD80220F4800F048F80E48FFF744
:104D400063F80E4B186010BD0A4C5422200000F08E
:104D50003DF80B4B6365A365E36523666366A36655
:104D6000E36623676367A367E3672362E361E5E7BD
:104D700053460000901400204C330000A045002052
:104D8000854D001007B5604601880A0A0230DF2A07
:104D9000FAD1C9B2820804D30288408800041043C3
:104DA00000E00068014A5050039007BD90140020B5
:104DB00001480421014B184790100020293E0010A3
:104DC000014B1B681847000090100020014B5B68E6
:104DD00018470000901000207047C046F8B55746AD
:104DE000DE464E464546E0B599460A9B07009A4680
:104DF0000D9B884693460B9C9B073BD10C9B9C428A
:104E00003DD21E1B0B9415000C005E442A004B463D
:104E1000013521002020B847B542F7D1A0460B9CB0
:104E2000002C20D0454636195346321B013C185DF4
:104E300029004B46B847002CF6D12B003500984688
:104E40000D9B9B070FD55B46EC1A0C9BA3420AD91E
:104E5000464698462A004B46310020200134B84788
:104E600001354445F6D32800F0BCBB46B246A946FE
:104E7000A046F8BD16001500002CD3D1E0E71600BF
:104E80001500002CCED1EEE7F0B54546DE4657467C
:104E90004E46E0B585B09C4610AB1B78149F9346F8
:104EA00098460F9C129E139DBB074CD4002D42D1F7
:104EB000B44248D201233B4099460E9B013B9A469F
:104EC000302304E0524601341355A64201D9202C68
:104ED000F8D14B46002B00D183E00E9B013B994655
:104EE0003023A54205D82EE04A4601341355AC4282
:104EF00029D0202CF8D1FB060CD57B0554D4A64232
:104F000063D0A54261D0119B102B50D0022B57D0FB
:104F1000202C32D1202301930E9B5A4600930397F5
:104F200063460295FFF75AFF05B0F0BCBB46B24698
:104F3000A946A046F0BD01233B40994601233B42D0
:104F40002AD1B442B9D3FB061CD57B05DBD4002C97
:104F5000D5D1119B102B5BD0119B022B6BD0302332
:104F600001240E9A13704346002B10D17B073ED5C7
:104F70002B260E9A631C1655CDE7230001343026EC
:104F80000E9AD654202CC5D04346002BEED02D26A9
:104F90000E9A631C1655BEE74346002B2FD0013DE9
:104FA000B44200D289E798E7119B102BB2D1BB061F
:104FB00037D5202CAED058230E9A13550134A7E7CD
:104FC000202CA7D02300013407E0631E012CC0D0A1
:104FD000119A102A31D0022AD1D162260E9AD654C3
:104FE00096E7FB06CED57B0500D488E78BE7230048
:104FF0003E0790D520260E9A013316558BE70C23D9
:105000003B405A1E9341ED1AB44200D255E764E783
:10501000BB060ED478230E9A0224137030235370EB
:10502000A1E7202C00D175E778230E9A135501349F
:105030006EE75823EFE76033EDE70E9AA61E914620
:105040004E44BA0602D55822327098E77822327060
:1050500095E7C04610B5002800D110BD01F062FCF4
:10506000FBE7C0460B0010B5002802D049681B685A
:10507000984710BDF0B55746DE464E464546E0B56A
:1050800095B083460F00924698461E9A1F9B1000CB
:105090001900209EFFF7CFFA002800D0EAE11E9801
:1050A0001F990122C54B5242FFF7AAFA002800D0EF
:1050B00014E11E981F990122C14B5242FFF7B6FA24
:1050C000002800D0E9E01E981F990022BD4BFFF791
:1050D000ADFA002800D0C8E01E981F990022BA4BF4
:1050E000FFF78EFA002800D0BFE01E981F9900221B
:1050F0000023FFF785FA002800D0E4E000230B939B
:10510000229B5B0500D406260024302307E01721EC
:1051100006AA013452181355013E202C01D0092E45
:10512000F5D81E981F99FFF7AFFAA84BF2009B180D
:105130001A685B68050008920993FFF78DFA020070
:105140000B001E981F99FFF7E8F9089A099BFFF7D3
:1051500014FA06900791FFF7BBFA8146FFF778FA39
:1051600002000B0006980799FFF7D7F90022984B29
:1051700006900791FFF75AFA002800D10DE10123AC
:105180009C46E1444846FFF763FA02000B0008988A
:105190000999FFF73BFA002802D000239946013510
:1051A000002E00D1D9E006954D46B94614E006AA76
:1051B000944617230A216344280001341F19FEF77F
:1051C00071FF3031397028000A21013EFEF76AFF75
:1051D000092D00D817E10500202CE8D14F46069D87
:1051E00020240CAE06AA17239446634499465B46D6
:1051F000B34606930FE04B4628000A210134E61817
:10520000FEF728FF3031280031700A21FEF722FF17
:10521000051E00D1E4E0202CEDD1069B5E469B46A6
:105220000323229A1340012B18D1219B002B15D068
:105230000B9B002B00D1FDE0219B013B2193202BF8
:105240000CD93023219A07E0172006A90134091848
:105250000B55944200D3CCE0202CF5D1229B019435
:105260000393219B0096029322E0229B52460493D3
:10527000219B3900039358461E9B1F9C0296009366
:105280000194434600F04AF90400200015B0F0BC38
:10529000BB46B246A946A046F0BD229B5B070FD491
:1052A00003224C4B22990192039121990093029180
:1052B0004346524639005846FFF790FD0400E4E7A4
:1052C0000422454BEEE71E9A1F9B00200021FFF7AA
:1052D00024F901231E901F910B9311E7229B544642
:1052E0009B0711D1219B042B0ED9219B55469C462F
:1052F0005E46043C64442A004346013539002020C0
:10530000B047A542F7D1B346344D26002B1F99462E
:105310005B46A3461C003200E87843463900013D55
:10532000A04701364D45F6D123005C469B46229BA3
:1053300004349B07A9D55346219AE31A9A42A4D96B
:105340005E4615002200434639002020B0475346F0
:105350000134E31A9D42F5D897E72800FFF77CF95E
:1053600002000B001E981F99FFF7D7F80022184B78
:1053700006900791FFF744F90CAE002800D031E702
:10538000069807990022124BFFF750F9002800D029
:1053900028E7012301359D4324E700220698079959
:1053A0000B4BFFF72DF9002800D0F9E64B46002BF8
:1053B0005CD101239C46E144F2E6C046FFFFEFFFCB
:1053C000FFFFEF7F65CDCD4165CDCDC110A60010AB
:1053D0000000E03F94A100108CA100109CA10010DF
:1053E000069B5E469B460323229A1340012B00D165
:1053F00081E0202C00D131E70B9B002B27D02D23FF
:10540000335501342AE74F46069D202C00D1E7E6AC
:105410003022331907E0172006A9013409180A556C
:10542000202C00D1DCE6A342F5D12E220CAE0134B3
:10543000F254D7E60C23229A134257D0219B013B0A
:105440002193A34200D9FCE6202C00D106E7229B41
:105450005B0703D52B2333550134FFE6229B1B0743
:1054600000D4FBE6202333550134F7E6DB0700D4F4
:1054700096E69EE7229B55469B0711D1219B032B65
:105480000ED9219B54469C465E46033D654422004E
:105490004346013439002020B047AC42F7D1B3462F
:1054A000B9465F461C4EEC1C2A00B078434649467C
:1054B0000135B847013EAC42F6D1229BBB464F4670
:1054C0009B0700D4E1E65346219AE31A9A4200D89A
:1054D000DBE65E4615002200434639002020B04737
:1054E00053460134E31AAB42F5D3CEE6219BA342E7
:1054F00000D9A6E6B2E6219B002B00D179E70B9BF1
:10550000002B97D0219B013B21939C4200D298E62F
:10551000202C00D073E7A1E698A10010F0B5DE467C
:1055200057464E464546E0B599B081468B46924671
:105530009846229A239B10001900FFF77CF8002858
:1055400000D0CAE0229823990122824B5242FFF7F1
:105550006DF8002800D0C0E02298239901227E4BEC
:105560005242FFF74DF8002800D0B6E02298239968
:1055700000220023FFF744F8002800D0C9E1229B55
:10558000239C08930994089809998023269ADB00A4
:105590001A400D928022269C1201144022000B9486
:1055A000269C07000E001C4200D0ADE00B00034318
:1055B00000D0D5E0002A00D00AE22200063324936E
:1055C000022313400C930223134200D002E2259BD6
:1055D000042B00D20FE2043B0B93002304250A9313
:1055E0000022229823990023FFF70AF8002800D010
:1055F00003E25A4B269A134004930B9B0393249B7C
:105600000293089B099C00930194594643465246D5
:105610004846FFF72FFD02002020269B1F2703404E
:1056200059424B415B421840531C0893594643462C
:105630004530C8470A9AD317D4185C40D30F0A9351
:105640006B1E0B9308AB9C460025674401E0202DA0
:105650000FD020000A21FEF725FD01357E193031DB
:10566000317020000A21FEF71DFD26000400092EDE
:10567000EDD8052306930B9B59460593002304930D
:105680000A3303930A9B4846029310AB0093089A8F
:1056900043460195FFF7F8FB0C9B002B2DD053469A
:1056A000C41A259BA34228D94D465F4681461E0059
:1056B000534639001A19202043460134A847A64210
:1056C000F6D8534648462599C21A01320023914222
:1056D00000D386E1013018180FE0269B0493259B28
:1056E0000393249B0293229B239C009301944346A3
:1056F000524659464846FFF7BDFC19B0F0BCBB46C0
:10570000B246A946A046F0BD01432BD10B9B220017
:10571000002B00D154E700230A93249B0A9A00240B
:10572000934200DD85E12298239900220023FEF7B1
:1057300067FF002800D035E1269B084A02941A40F2
:105740008023DB0013430493259B0393089B099C50
:10575000CBE7C046FFFFEF7FFFFFEFFFFFF7FFFF45
:1057600006232493B44B70009C46400D6044FEF722
:1057700073FFB24AB24BFEF700FFB24AB24BFEF7DC
:10578000D5FE3603B14B360B334304000D00380011
:1057900019000022AE4BFEF7C0FEAE4AAE4BFEF73C
:1057A000ECFE02000B0020002900FEF7BFFEFEF712
:1057B0006BFF0A90FEF750FFA84AA94B04000D00AA
:1057C000FEF7DBFE0022A74BFEF7B0FEFEF75CFF04
:1057D000A54A0600A54B20002900FEF7CEFE0400D6
:1057E00030000D000C96FEF737FFA14AA14BFEF7E3
:1057F000C4FE02000B0020002900FEF78EFE02000E
:105800000B0006000F00FEF7B8FE320004000D008A
:105810003B0030003900FEF789FE00220E900F9108
:10582000954B20002900FEF78AFE0022934BFEF7DD
:105830007DFE02000B0020002900FEF780FE002202
:105840008F4BFEF773FE02000B0020002900FEF7CD
:1058500076FE0D008021040032003B000020C905C7
:10586000FEF75BFE02000B0020002900FEF75EFE43
:1058700002000B000E980F99FEF761FE0022734B99
:10588000FEF754FE7F4B0C9C9C466444002223058B
:10589000FEF773FE06000F0002000B00089809993E
:1058A000FEF7AEFE00280AD00A9B3000013B39000B
:1058B0000A930022714BFEF742FE06000F000A9A7F
:1058C000330063323900C62A12D8022226980425F2
:1058D00010400B9A0C90002A25D1259B042B05D94A
:1058E000002800D0A1E0259B043B0B93042541E058
:1058F0000222269810400B9A0C90002A12D1259B68
:10590000052B76D9002872D1259B0525053B0B93E5
:1059100034E0802212069446229B0893239B634422
:10592000099330E605250B4300D1F6E6089809995E
:10593000554A564BFEF772FE002808D00898099980
:105940000022534BFEF75CFE002800D0E5E6249BC6
:10595000002B1CD00D9B002B19D0249B013B2493C2
:10596000259BAB4204D90C9B002B5AD002230C93ED
:1059700000230B930A9B002B00D131E6089809996C
:1059800032003B00FEF7DBFD0890099128E6259BDD
:10599000AB42EDD90C9B002B43D000230B93023379
:1059A0000C93E7E78020269B3A4A00061A408023A2
:1059B00084460294089C099D2900DB00134304934C
:1059C000259B6144220003930B00009201938EE615
:1059D0000524A8E600230B930A93023304250C93B5
:1059E000FEE553468C46013B63441B1A72E60223D4
:1059F0000C930525C2E70423EDE58020089E099F4E
:105A0000000639008446269A224B614413400493D1
:105A10000B9B32000393249B02930B000092019393
:105A2000F3E5259B5B1B0B93A4E7022304250C9352
:105A3000A0E79C1A013C76E601FCFFFFFB799F5032
:105A40001344D33FB3C8608B288AC63F0000F03FA1
:105A50000000F83F61436F63A787D23F71A37909C4
:105A60004F930A400000E03F1655B5BBB16B0240B2
:105A7000EF39FAFE422EE63F00002C4000002440A1
:105A800000001840FF0300002D431CEBE2361A3FD4
:105A900080842E41FFF7FFFFF0B5DE4657464E46A5
:105AA0004546E0B5A5B01E002E9B92460C93CD4A0C
:105AB000CD4B80468B461A60002900D1EAE10023D5
:105AC00030789946002800D1ECE1C84B4C460B9346
:105AD000C74B454657460E930AE0631C9846220082
